100HDR                                                                                                                                                                                                                                          
200NB0000000000001                                                                          000000000000100                                                                                                                                     
200NB0000000000002                                                                          000000000000200                                                                                                                                     
200NB0000000000003                                                                          000000000000300                                                                                                                                     
200NB0000000000004                                                                          000000000000400                                                                                                                                     
200NB0000000000005                                                                          000000000000500                                                                                                                                     
200NB0000000000006                                                                          000000000000600                                                                                                                                     
900000000006000000000000002100                                                                                                                                                                                                                  
