1000000103254012025111103202511CONPAG                                                         000001                                                                                                                                            
20000002700000000220250228202502010120251111000001000000001234820250331                                        1601                                                                                                                             
20000003700000000320250228202502010120251111000001000000001234820250331                                        1601                                                                                                                             
30000001032540000000200000000000002468030000000200000000000002468000000000000000000000000000000000000000000000000000000000000000000000000000                                                                                                    
