1000000103254012025111103202511CONPAG                                                         000001                                                                                                                                            
20000002700000000120250228202502010120251111000001000000001234820250331                                        1701                                                                                                                             
20000003700000000220250228202502010120251111000001000000001234820250331                                        1601                                                                                                                             
20000004700000000320250228202502010120251111000001000000001234820250331                                        1601                                                                                                                             
30000001032540000000300000000000003702030000000300000000000003702000000000000000000000000000000000000000000000000000000000000000000000000000                                                                                                    
