100FHMLRET1120251107161224HMLMAC12.TESTE_FINAL                                                                                                                                                                                                  
200NB0000000000001     000000000000100                                                                                                                                                                                                          
200NB0000000000002     000000000000200                                                                                                                                                                                                          
200NB0000000000004     000000000000400                                                                                                                                                                                                          
200NB0000000000006     000000000000600                                                                                                                                                                                                          
900000000004000000000000001300                                                                                                                                                                                                                  
