1000000103254012025111103202511CONPAG                                                         000001                                                                                                                                            
20000002700000000220250228202502010120251111000001000000001234820250331                                        1601                                                                                                                             
30000001032540000000100000000000001234030000000100000000000001234000000000000000000000000000000000000000000000000000000000000000000000000000                                                                                                    
