1000000103254012025111003202511CONPAG                                                         000001                                                                                                                                            
20000002700824409720250228202502010120251110000001990000001518820250331                                        9901                                                                                                                             
20000003700824410020250228202502010120251110000001790000001518820250331                                        9901                                                                                                                             
20000004700824412720250228202502010120251110000001440000001518820250331                                        9901                                                                                                                             
20000005700824405420250228202502010120251110000001730000001518820250331                                        9901                                                                                                                             
20000006700824406220250228202502010120251110000001640000001518820250331                                        9901                                                                                                                             
20000007700824407020250228202502010120251110000001990000003039820250331                                        9901                                                                                                                             
20000008700824408920250228202502010120251110000001660000001518820250331                                        9901                                                                                                                             
20000009700824413520250228202502010120251110000001640000001518820250331                                        9901                                                                                                                             
20000010740515912620250228202502010120251110000001790000001518820250331                                        9901                                                                                                                             
20000011700824410020250228202502010120251110000001000314381848820250331                                        9901                                                                                                                             
20000012700824405420250228202502010120251110000001000992629813820250331                                        9901                                                                                                                             
20000013700824407020250228202502010120251110000001000000000000820250331                                        9901                                                                                                                             
30000014032540000001200006671307026844030000001200006671307026844000000000000000000000000000000000000000000000000000000000000000000000000000                                                                                                    
