100      202511070000000001SERVICIO                                                                                                                                                                                                             
200      20000001001000000010000                12000000010000                    0000123456                                                                                                                                                    
200      20000001002000000020000                12000000020000                    0000123456                                                                                                                                                    
200      20000001003000000030000                12000000030000                    0000123456                                                                                                                                                    
200      20000001004000000040000                12000000040000                    0000123456                                                                                                                                                    
200      20000001005000000050000                12000000050000                    0000123456                                                                                                                                                    
200      20000001006000000060000                12000000060000                    0000123456                                                                                                                                                    
200      20000001007000000070000                12000000070000                    0000123456                                                                                                                                                    
200      20000001008000000080000                12000000080000                    0000123456                                                                                                                                                    
200      20000001009000000090000                12000000090000                    0000123456                                                                                                                                                    
200      20000001010000000100000                12000000100000                    0000123456                                                                                                                                                    
300      00000010000000000550000                                                                                                                                                                                                                
