100TESTHEADER                                                                                                                                                                                                                                   
200              000000000001000                                                                                                                                                                                                                
200              000000000001001                                                                                                                                                                                                                
200              000000000001002                                                                                                                                                                                                                
200              000000000001003                                                                                                                                                                                                                
200              000000000001004                                                                                                                                                                                                                
200              000000000001005                                                                                                                                                                                                                
200              000000000001006                                                                                                                                                                                                                
200              000000000001007                                                                                                                                                                                                                
200              000000000001008                                                                                                                                                                                                                
200              000000000001009                                                                                                                                                                                                                
300TESTTRAILER                                                                                                                                                                                                                                  
